{
	"data": {
		"bytecode": {
			"linkReferences": {},
			"object": "6080604052348015600e575f80fd5b50606a80601a5f395ff3fe6080604052348015600e575f80fd5b50600436106026575f3560e01c80635e0a94cb14602a575b5f80fd5b60306032565b005b56fea2646970667358221220815f8f213ee4c0a8c75250b67043f80a426331aeae3f604976afbb7c6b201f3064736f6c634300081a0033",
			"opcodes": "PUSH1 0x80 PUSH1 0x40 MSTORE CALLVALUE DUP1 ISZERO PUSH1 0xE JUMPI PUSH0 DUP1 REVERT JUMPDEST POP PUSH1 0x6A DUP1 PUSH1 0x1A PUSH0 CODECOPY PUSH0 RETURN INVALID PUSH1 0x80 PUSH1 0x40 MSTORE CALLVALUE DUP1 ISZERO PUSH1 0xE JUMPI PUSH0 DUP1 REVERT JUMPDEST POP PUSH1 0x4 CALLDATASIZE LT PUSH1 0x26 JUMPI PUSH0 CALLDATALOAD PUSH1 0xE0 SHR DUP1 PUSH4 0x5E0A94CB EQ PUSH1 0x2A JUMPI JUMPDEST PUSH0 DUP1 REVERT JUMPDEST PUSH1 0x30 PUSH1 0x32 JUMP JUMPDEST STOP JUMPDEST JUMP INVALID LOG2 PUSH5 0x6970667358 0x22 SLT KECCAK256 DUP2 PUSH0 DUP16 0x21 RETURNDATACOPY 0xE4 0xC0 0xA8 0xC7 MSTORE POP 0xB6 PUSH17 0x43F80A426331AEAE3F604976AFBB7C6B20 0x1F ADDRESS PUSH5 0x736F6C6343 STOP ADDMOD BYTE STOP CALLER "
		},
		"gasEstimates": {
			"creation": {
				"codeDepositCost": "21200",
				"executionCost": "73",
				"totalCost": "21273"
			},
			"external": {
				"createHelloWorld()": "121"
			}
		},
		"methodIdentifiers": {
			"createHelloWorld()": "5e0a94cb"
		}
	},
	"abi": [
		{
			"inputs": [],
			"name": "createHelloWorld",
			"outputs": [],
			"stateMutability": "nonpayable",
			"type": "function"
		}
	]
}