{
	"data": {
		"bytecode": {
			"linkReferences": {},
			"object": "608060405260015f806101000a81548160ff0219169083151502179055505f8060016101000a81548160ff02191690831515021790555060ff5f60026101000a81548160ff021916908360ff1602179055507fffffffffffffffffffffffffffffffffffffffffffffffffffffffffffffffa65f60036101000a81548160ff02191690835f0b60ff1602179055507f68656c6c6f2c576f726c640000000000000000000000000000000000000000006001556040518060400160405280600b81526020017f48656c6c6f2c576f726c6400000000000000000000000000000000000000000081525060029081620000f79190620003c3565b50735b38da6a701c568545dcfcb03fcb875f56beddc460035f6101000a81548173ffffffffffffffffffffffffffffffffffffffff021916908373ffffffffffffffffffffffffffffffffffffffff16021790555034801562000158575f80fd5b50620004a7565b5f81519050919050565b7f4e487b71000000000000000000000000000000000000000000000000000000005f52604160045260245ffd5b7f4e487b71000000000000000000000000000000000000000000000000000000005f52602260045260245ffd5b5f6002820490506001821680620001db57607f821691505b602082108103620001f157620001f062000196565b5b50919050565b5f819050815f5260205f209050919050565b5f6020601f8301049050919050565b5f82821b905092915050565b5f60088302620002557fffffffffffffffffffffffffffffffffffffffffffffffffffffffffffffffff8262000218565b62000261868362000218565b95508019841693508086168417925050509392505050565b5f819050919050565b5f819050919050565b5f620002ab620002a56200029f8462000279565b62000282565b62000279565b9050919050565b5f819050919050565b620002c6836200028b565b620002de620002d582620002b2565b84845462000224565b825550505050565b5f90565b620002f4620002e6565b62000301818484620002bb565b505050565b5b8181101562000328576200031c5f82620002ea565b60018101905062000307565b5050565b601f82111562000377576200034181620001f7565b6200034c8462000209565b810160208510156200035c578190505b620003746200036b8562000209565b83018262000306565b50505b505050565b5f82821c905092915050565b5f620003995f19846008026200037c565b1980831691505092915050565b5f620003b3838362000388565b9150826002028217905092915050565b620003ce826200015f565b67ffffffffffffffff811115620003ea57620003e962000169565b5b620003f68254620001c3565b620004038282856200032c565b5f60209050601f83116001811462000439575f841562000424578287015190505b620004308582620003a6565b8655506200049f565b601f1984166200044986620001f7565b5f5b8281101562000472578489015182556001820191506020850194506020810190506200044b565b868310156200049257848901516200048e601f89168262000388565b8355505b6001600288020188555050505b505050505050565b61092d80620004b55f395ff3fe608060405234801561000f575f80fd5b5060043610610034575f3560e01c806342257b31146100385780635d641b8914610068575b5f80fd5b610052600480360381019061004d919061034e565b610084565b60405161005f9190610403565b60405180910390f35b610082600480360381019061007d919061054f565b61022f565b005b60605f73ffffffffffffffffffffffffffffffffffffffff1660055f8481526020019081526020015f206002015f9054906101000a900473ffffffffffffffffffffffffffffffffffffffff1673ffffffffffffffffffffffffffffffffffffffff16036101845761017d600280546100fc906105d6565b80601f0160208091040260200160405190810160405280929190818152602001828054610128906105d6565b80156101735780601f1061014a57610100808354040283529160200191610173565b820191905f5260205f20905b81548152906001019060200180831161015657829003601f168201915b50505050506102e1565b905061022a565b61022760055f8481526020019081526020015f2060010180546101a6906105d6565b80601f01602080910402602001604051908101604052809291908181526020018280546101d2906105d6565b801561021d5780601f106101f45761010080835404028352916020019161021d565b820191905f5260205f20905b81548152906001019060200180831161020057829003601f168201915b50505050506102e1565b90505b919050565b5f60405180606001604052808381526020018481526020013373ffffffffffffffffffffffffffffffffffffffff1681525090508060055f8481526020019081526020015f205f820151815f0155602082015181600101908161029291906107a3565b506040820151816002015f6101000a81548173ffffffffffffffffffffffffffffffffffffffff021916908373ffffffffffffffffffffffffffffffffffffffff160217905550905050505050565b6060816040516020016102f491906108d2565b6040516020818303038152906040529050919050565b5f604051905090565b5f80fd5b5f80fd5b5f819050919050565b61032d8161031b565b8114610337575f80fd5b50565b5f8135905061034881610324565b92915050565b5f6020828403121561036357610362610313565b5b5f6103708482850161033a565b91505092915050565b5f81519050919050565b5f82825260208201905092915050565b5f5b838110156103b0578082015181840152602081019050610395565b5f8484015250505050565b5f601f19601f8301169050919050565b5f6103d582610379565b6103df8185610383565b93506103ef818560208601610393565b6103f8816103bb565b840191505092915050565b5f6020820190508181035f83015261041b81846103cb565b905092915050565b5f80fd5b5f80fd5b7f4e487b71000000000000000000000000000000000000000000000000000000005f52604160045260245ffd5b610461826103bb565b810181811067ffffffffffffffff821117156104805761047f61042b565b5b80604052505050565b5f61049261030a565b905061049e8282610458565b919050565b5f67ffffffffffffffff8211156104bd576104bc61042b565b5b6104c6826103bb565b9050602081019050919050565b828183375f83830152505050565b5f6104f36104ee846104a3565b610489565b90508281526020810184848401111561050f5761050e610427565b5b61051a8482856104d3565b509392505050565b5f82601f83011261053657610535610423565b5b81356105468482602086016104e1565b91505092915050565b5f806040838503121561056557610564610313565b5b5f83013567ffffffffffffffff81111561058257610581610317565b5b61058e85828601610522565b925050602061059f8582860161033a565b9150509250929050565b7f4e487b71000000000000000000000000000000000000000000000000000000005f52602260045260245ffd5b5f60028204905060018216806105ed57607f821691505b602082108103610600576105ff6105a9565b5b50919050565b5f819050815f5260205f209050919050565b5f6020601f8301049050919050565b5f82821b905092915050565b5f600883026106627fffffffffffffffffffffffffffffffffffffffffffffffffffffffffffffffff82610627565b61066c8683610627565b95508019841693508086168417925050509392505050565b5f819050919050565b5f6106a76106a261069d8461031b565b610684565b61031b565b9050919050565b5f819050919050565b6106c08361068d565b6106d46106cc826106ae565b848454610633565b825550505050565b5f90565b6106e86106dc565b6106f38184846106b7565b505050565b5b818110156107165761070b5f826106e0565b6001810190506106f9565b5050565b601f82111561075b5761072c81610606565b61073584610618565b81016020851015610744578190505b61075861075085610618565b8301826106f8565b50505b505050565b5f82821c905092915050565b5f61077b5f1984600802610760565b1980831691505092915050565b5f610793838361076c565b9150826002028217905092915050565b6107ac82610379565b67ffffffffffffffff8111156107c5576107c461042b565b5b6107cf82546105d6565b6107da82828561071a565b5f60209050601f83116001811461080b575f84156107f9578287015190505b6108038582610788565b86555061086a565b601f19841661081986610606565b5f5b828110156108405784890151825560018201915060208501945060208101905061081b565b8683101561085d5784890151610859601f89168261076c565b8355505b6001600288020188555050505b505050505050565b5f81905092915050565b5f61088682610379565b6108908185610872565b93506108a0818560208601610393565b80840191505092915050565b7f2066726f6d206672616e6b277320636f6e747261637400000000000000000000815250565b5f6108dd828461087c565b91506108e8826108ac565b6016820191508190509291505056fea264697066735822122004991f5b38eb3087bd3449a9faff0c2f723c69c662bca44af1d4a784cbc3d2b264736f6c63430008180033",
			"opcodes": "PUSH1 0x80 PUSH1 0x40 MSTORE PUSH1 0x1 PUSH0 DUP1 PUSH2 0x100 EXP DUP2 SLOAD DUP2 PUSH1 0xFF MUL NOT AND SWAP1 DUP4 ISZERO ISZERO MUL OR SWAP1 SSTORE POP PUSH0 DUP1 PUSH1 0x1 PUSH2 0x100 EXP DUP2 SLOAD DUP2 PUSH1 0xFF MUL NOT AND SWAP1 DUP4 ISZERO ISZERO MUL OR SWAP1 SSTORE POP PUSH1 0xFF PUSH0 PUSH1 0x2 PUSH2 0x100 EXP DUP2 SLOAD DUP2 PUSH1 0xFF MUL NOT AND SWAP1 DUP4 PUSH1 0xFF AND MUL OR SWAP1 SSTORE POP PUSH32 0xFFFFFFFFFFFFFFFFFFFFFFFFFFFFFFFFFFFFFFFFFFFFFFFFFFFFFFFFFFFFFFA6 PUSH0 PUSH1 0x3 PUSH2 0x100 EXP DUP2 SLOAD DUP2 PUSH1 0xFF MUL NOT AND SWAP1 DUP4 PUSH0 SIGNEXTEND PUSH1 0xFF AND MUL OR SWAP1 SSTORE POP PUSH32 0x68656C6C6F2C576F726C64000000000000000000000000000000000000000000 PUSH1 0x1 SSTORE PUSH1 0x40 MLOAD DUP1 PUSH1 0x40 ADD PUSH1 0x40 MSTORE DUP1 PUSH1 0xB DUP2 MSTORE PUSH1 0x20 ADD PUSH32 0x48656C6C6F2C576F726C64000000000000000000000000000000000000000000 DUP2 MSTORE POP PUSH1 0x2 SWAP1 DUP2 PUSH3 0xF7 SWAP2 SWAP1 PUSH3 0x3C3 JUMP JUMPDEST POP PUSH20 0x5B38DA6A701C568545DCFCB03FCB875F56BEDDC4 PUSH1 0x3 PUSH0 PUSH2 0x100 EXP DUP2 SLOAD DUP2 PUSH20 0xFFFFFFFFFFFFFFFFFFFFFFFFFFFFFFFFFFFFFFFF MUL NOT AND SWAP1 DUP4 PUSH20 0xFFFFFFFFFFFFFFFFFFFFFFFFFFFFFFFFFFFFFFFF AND MUL OR SWAP1 SSTORE POP CALLVALUE DUP1 ISZERO PUSH3 0x158 JUMPI PUSH0 DUP1 REVERT JUMPDEST POP PUSH3 0x4A7 JUMP JUMPDEST PUSH0 DUP2 MLOAD SWAP1 POP SWAP2 SWAP1 POP JUMP JUMPDEST PUSH32 0x4E487B7100000000000000000000000000000000000000000000000000000000 PUSH0 MSTORE PUSH1 0x41 PUSH1 0x4 MSTORE PUSH1 0x24 PUSH0 REVERT JUMPDEST PUSH32 0x4E487B7100000000000000000000000000000000000000000000000000000000 PUSH0 MSTORE PUSH1 0x22 PUSH1 0x4 MSTORE PUSH1 0x24 PUSH0 REVERT JUMPDEST PUSH0 PUSH1 0x2 DUP3 DIV SWAP1 POP PUSH1 0x1 DUP3 AND DUP1 PUSH3 0x1DB JUMPI PUSH1 0x7F DUP3 AND SWAP2 POP JUMPDEST PUSH1 0x20 DUP3 LT DUP2 SUB PUSH3 0x1F1 JUMPI PUSH3 0x1F0 PUSH3 0x196 JUMP JUMPDEST JUMPDEST POP SWAP2 SWAP1 POP JUMP JUMPDEST PUSH0 DUP2 SWAP1 POP DUP2 PUSH0 MSTORE PUSH1 0x20 PUSH0 KECCAK256 SWAP1 POP SWAP2 SWAP1 POP JUMP JUMPDEST PUSH0 PUSH1 0x20 PUSH1 0x1F DUP4 ADD DIV SWAP1 POP SWAP2 SWAP1 POP JUMP JUMPDEST PUSH0 DUP3 DUP3 SHL SWAP1 POP SWAP3 SWAP2 POP POP JUMP JUMPDEST PUSH0 PUSH1 0x8 DUP4 MUL PUSH3 0x255 PUSH32 0xFFFFFFFFFFFFFFFFFFFFFFFFFFFFFFFFFFFFFFFFFFFFFFFFFFFFFFFFFFFFFFFF DUP3 PUSH3 0x218 JUMP JUMPDEST PUSH3 0x261 DUP7 DUP4 PUSH3 0x218 JUMP JUMPDEST SWAP6 POP DUP1 NOT DUP5 AND SWAP4 POP DUP1 DUP7 AND DUP5 OR SWAP3 POP POP POP SWAP4 SWAP3 POP POP POP JUMP JUMPDEST PUSH0 DUP2 SWAP1 POP SWAP2 SWAP1 POP JUMP JUMPDEST PUSH0 DUP2 SWAP1 POP SWAP2 SWAP1 POP JUMP JUMPDEST PUSH0 PUSH3 0x2AB PUSH3 0x2A5 PUSH3 0x29F DUP5 PUSH3 0x279 JUMP JUMPDEST PUSH3 0x282 JUMP JUMPDEST PUSH3 0x279 JUMP JUMPDEST SWAP1 POP SWAP2 SWAP1 POP JUMP JUMPDEST PUSH0 DUP2 SWAP1 POP SWAP2 SWAP1 POP JUMP JUMPDEST PUSH3 0x2C6 DUP4 PUSH3 0x28B JUMP JUMPDEST PUSH3 0x2DE PUSH3 0x2D5 DUP3 PUSH3 0x2B2 JUMP JUMPDEST DUP5 DUP5 SLOAD PUSH3 0x224 JUMP JUMPDEST DUP3 SSTORE POP POP POP POP JUMP JUMPDEST PUSH0 SWAP1 JUMP JUMPDEST PUSH3 0x2F4 PUSH3 0x2E6 JUMP JUMPDEST PUSH3 0x301 DUP2 DUP5 DUP5 PUSH3 0x2BB JUMP JUMPDEST POP POP POP JUMP JUMPDEST JUMPDEST DUP2 DUP2 LT ISZERO PUSH3 0x328 JUMPI PUSH3 0x31C PUSH0 DUP3 PUSH3 0x2EA JUMP JUMPDEST PUSH1 0x1 DUP2 ADD SWAP1 POP PUSH3 0x307 JUMP JUMPDEST POP POP JUMP JUMPDEST PUSH1 0x1F DUP3 GT ISZERO PUSH3 0x377 JUMPI PUSH3 0x341 DUP2 PUSH3 0x1F7 JUMP JUMPDEST PUSH3 0x34C DUP5 PUSH3 0x209 JUMP JUMPDEST DUP2 ADD PUSH1 0x20 DUP6 LT ISZERO PUSH3 0x35C JUMPI DUP2 SWAP1 POP JUMPDEST PUSH3 0x374 PUSH3 0x36B DUP6 PUSH3 0x209 JUMP JUMPDEST DUP4 ADD DUP3 PUSH3 0x306 JUMP JUMPDEST POP POP JUMPDEST POP POP POP JUMP JUMPDEST PUSH0 DUP3 DUP3 SHR SWAP1 POP SWAP3 SWAP2 POP POP JUMP JUMPDEST PUSH0 PUSH3 0x399 PUSH0 NOT DUP5 PUSH1 0x8 MUL PUSH3 0x37C JUMP JUMPDEST NOT DUP1 DUP4 AND SWAP2 POP POP SWAP3 SWAP2 POP POP JUMP JUMPDEST PUSH0 PUSH3 0x3B3 DUP4 DUP4 PUSH3 0x388 JUMP JUMPDEST SWAP2 POP DUP3 PUSH1 0x2 MUL DUP3 OR SWAP1 POP SWAP3 SWAP2 POP POP JUMP JUMPDEST PUSH3 0x3CE DUP3 PUSH3 0x15F JUMP JUMPDEST PUSH8 0xFFFFFFFFFFFFFFFF DUP2 GT ISZERO PUSH3 0x3EA JUMPI PUSH3 0x3E9 PUSH3 0x169 JUMP JUMPDEST JUMPDEST PUSH3 0x3F6 DUP3 SLOAD PUSH3 0x1C3 JUMP JUMPDEST PUSH3 0x403 DUP3 DUP3 DUP6 PUSH3 0x32C JUMP JUMPDEST PUSH0 PUSH1 0x20 SWAP1 POP PUSH1 0x1F DUP4 GT PUSH1 0x1 DUP2 EQ PUSH3 0x439 JUMPI PUSH0 DUP5 ISZERO PUSH3 0x424 JUMPI DUP3 DUP8 ADD MLOAD SWAP1 POP JUMPDEST PUSH3 0x430 DUP6 DUP3 PUSH3 0x3A6 JUMP JUMPDEST DUP7 SSTORE POP PUSH3 0x49F JUMP JUMPDEST PUSH1 0x1F NOT DUP5 AND PUSH3 0x449 DUP7 PUSH3 0x1F7 JUMP JUMPDEST PUSH0 JUMPDEST DUP3 DUP2 LT ISZERO PUSH3 0x472 JUMPI DUP5 DUP10 ADD MLOAD DUP3 SSTORE PUSH1 0x1 DUP3 ADD SWAP2 POP PUSH1 0x20 DUP6 ADD SWAP5 POP PUSH1 0x20 DUP2 ADD SWAP1 POP PUSH3 0x44B JUMP JUMPDEST DUP7 DUP4 LT ISZERO PUSH3 0x492 JUMPI DUP5 DUP10 ADD MLOAD PUSH3 0x48E PUSH1 0x1F DUP10 AND DUP3 PUSH3 0x388 JUMP JUMPDEST DUP4 SSTORE POP JUMPDEST PUSH1 0x1 PUSH1 0x2 DUP9 MUL ADD DUP9 SSTORE POP POP POP JUMPDEST POP POP POP POP POP POP JUMP JUMPDEST PUSH2 0x92D DUP1 PUSH3 0x4B5 PUSH0 CODECOPY PUSH0 RETURN INVALID PUSH1 0x80 PUSH1 0x40 MSTORE CALLVALUE DUP1 ISZERO PUSH2 0xF JUMPI PUSH0 DUP1 REVERT JUMPDEST POP PUSH1 0x4 CALLDATASIZE LT PUSH2 0x34 JUMPI PUSH0 CALLDATALOAD PUSH1 0xE0 SHR DUP1 PUSH4 0x42257B31 EQ PUSH2 0x38 JUMPI DUP1 PUSH4 0x5D641B89 EQ PUSH2 0x68 JUMPI JUMPDEST PUSH0 DUP1 REVERT JUMPDEST PUSH2 0x52 PUSH1 0x4 DUP1 CALLDATASIZE SUB DUP2 ADD SWAP1 PUSH2 0x4D SWAP2 SWAP1 PUSH2 0x34E JUMP JUMPDEST PUSH2 0x84 JUMP JUMPDEST PUSH1 0x40 MLOAD PUSH2 0x5F SWAP2 SWAP1 PUSH2 0x403 JUMP JUMPDEST PUSH1 0x40 MLOAD DUP1 SWAP2 SUB SWAP1 RETURN JUMPDEST PUSH2 0x82 PUSH1 0x4 DUP1 CALLDATASIZE SUB DUP2 ADD SWAP1 PUSH2 0x7D SWAP2 SWAP1 PUSH2 0x54F JUMP JUMPDEST PUSH2 0x22F JUMP JUMPDEST STOP JUMPDEST PUSH1 0x60 PUSH0 PUSH20 0xFFFFFFFFFFFFFFFFFFFFFFFFFFFFFFFFFFFFFFFF AND PUSH1 0x5 PUSH0 DUP5 DUP2 MSTORE PUSH1 0x20 ADD SWAP1 DUP2 MSTORE PUSH1 0x20 ADD PUSH0 KECCAK256 PUSH1 0x2 ADD PUSH0 SWAP1 SLOAD SWAP1 PUSH2 0x100 EXP SWAP1 DIV PUSH20 0xFFFFFFFFFFFFFFFFFFFFFFFFFFFFFFFFFFFFFFFF AND PUSH20 0xFFFFFFFFFFFFFFFFFFFFFFFFFFFFFFFFFFFFFFFF AND SUB PUSH2 0x184 JUMPI PUSH2 0x17D PUSH1 0x2 DUP1 SLOAD PUSH2 0xFC SWAP1 PUSH2 0x5D6 JUMP JUMPDEST DUP1 PUSH1 0x1F ADD PUSH1 0x20 DUP1 SWAP2 DIV MUL PUSH1 0x20 ADD PUSH1 0x40 MLOAD SWAP1 DUP2 ADD PUSH1 0x40 MSTORE DUP1 SWAP3 SWAP2 SWAP1 DUP2 DUP2 MSTORE PUSH1 0x20 ADD DUP3 DUP1 SLOAD PUSH2 0x128 SWAP1 PUSH2 0x5D6 JUMP JUMPDEST DUP1 ISZERO PUSH2 0x173 JUMPI DUP1 PUSH1 0x1F LT PUSH2 0x14A JUMPI PUSH2 0x100 DUP1 DUP4 SLOAD DIV MUL DUP4 MSTORE SWAP2 PUSH1 0x20 ADD SWAP2 PUSH2 0x173 JUMP JUMPDEST DUP3 ADD SWAP2 SWAP1 PUSH0 MSTORE PUSH1 0x20 PUSH0 KECCAK256 SWAP1 JUMPDEST DUP2 SLOAD DUP2 MSTORE SWAP1 PUSH1 0x1 ADD SWAP1 PUSH1 0x20 ADD DUP1 DUP4 GT PUSH2 0x156 JUMPI DUP3 SWAP1 SUB PUSH1 0x1F AND DUP3 ADD SWAP2 JUMPDEST POP POP POP POP POP PUSH2 0x2E1 JUMP JUMPDEST SWAP1 POP PUSH2 0x22A JUMP JUMPDEST PUSH2 0x227 PUSH1 0x5 PUSH0 DUP5 DUP2 MSTORE PUSH1 0x20 ADD SWAP1 DUP2 MSTORE PUSH1 0x20 ADD PUSH0 KECCAK256 PUSH1 0x1 ADD DUP1 SLOAD PUSH2 0x1A6 SWAP1 PUSH2 0x5D6 JUMP JUMPDEST DUP1 PUSH1 0x1F ADD PUSH1 0x20 DUP1 SWAP2 DIV MUL PUSH1 0x20 ADD PUSH1 0x40 MLOAD SWAP1 DUP2 ADD PUSH1 0x40 MSTORE DUP1 SWAP3 SWAP2 SWAP1 DUP2 DUP2 MSTORE PUSH1 0x20 ADD DUP3 DUP1 SLOAD PUSH2 0x1D2 SWAP1 PUSH2 0x5D6 JUMP JUMPDEST DUP1 ISZERO PUSH2 0x21D JUMPI DUP1 PUSH1 0x1F LT PUSH2 0x1F4 JUMPI PUSH2 0x100 DUP1 DUP4 SLOAD DIV MUL DUP4 MSTORE SWAP2 PUSH1 0x20 ADD SWAP2 PUSH2 0x21D JUMP JUMPDEST DUP3 ADD SWAP2 SWAP1 PUSH0 MSTORE PUSH1 0x20 PUSH0 KECCAK256 SWAP1 JUMPDEST DUP2 SLOAD DUP2 MSTORE SWAP1 PUSH1 0x1 ADD SWAP1 PUSH1 0x20 ADD DUP1 DUP4 GT PUSH2 0x200 JUMPI DUP3 SWAP1 SUB PUSH1 0x1F AND DUP3 ADD SWAP2 JUMPDEST POP POP POP POP POP PUSH2 0x2E1 JUMP JUMPDEST SWAP1 POP JUMPDEST SWAP2 SWAP1 POP JUMP JUMPDEST PUSH0 PUSH1 0x40 MLOAD DUP1 PUSH1 0x60 ADD PUSH1 0x40 MSTORE DUP1 DUP4 DUP2 MSTORE PUSH1 0x20 ADD DUP5 DUP2 MSTORE PUSH1 0x20 ADD CALLER PUSH20 0xFFFFFFFFFFFFFFFFFFFFFFFFFFFFFFFFFFFFFFFF AND DUP2 MSTORE POP SWAP1 POP DUP1 PUSH1 0x5 PUSH0 DUP5 DUP2 MSTORE PUSH1 0x20 ADD SWAP1 DUP2 MSTORE PUSH1 0x20 ADD PUSH0 KECCAK256 PUSH0 DUP3 ADD MLOAD DUP2 PUSH0 ADD SSTORE PUSH1 0x20 DUP3 ADD MLOAD DUP2 PUSH1 0x1 ADD SWAP1 DUP2 PUSH2 0x292 SWAP2 SWAP1 PUSH2 0x7A3 JUMP JUMPDEST POP PUSH1 0x40 DUP3 ADD MLOAD DUP2 PUSH1 0x2 ADD PUSH0 PUSH2 0x100 EXP DUP2 SLOAD DUP2 PUSH20 0xFFFFFFFFFFFFFFFFFFFFFFFFFFFFFFFFFFFFFFFF MUL NOT AND SWAP1 DUP4 PUSH20 0xFFFFFFFFFFFFFFFFFFFFFFFFFFFFFFFFFFFFFFFF AND MUL OR SWAP1 SSTORE POP SWAP1 POP POP POP POP POP JUMP JUMPDEST PUSH1 0x60 DUP2 PUSH1 0x40 MLOAD PUSH1 0x20 ADD PUSH2 0x2F4 SWAP2 SWAP1 PUSH2 0x8D2 JUMP JUMPDEST PUSH1 0x40 MLOAD PUSH1 0x20 DUP2 DUP4 SUB SUB DUP2 MSTORE SWAP1 PUSH1 0x40 MSTORE SWAP1 POP SWAP2 SWAP1 POP JUMP JUMPDEST PUSH0 PUSH1 0x40 MLOAD SWAP1 POP SWAP1 JUMP JUMPDEST PUSH0 DUP1 REVERT JUMPDEST PUSH0 DUP1 REVERT JUMPDEST PUSH0 DUP2 SWAP1 POP SWAP2 SWAP1 POP JUMP JUMPDEST PUSH2 0x32D DUP2 PUSH2 0x31B JUMP JUMPDEST DUP2 EQ PUSH2 0x337 JUMPI PUSH0 DUP1 REVERT JUMPDEST POP JUMP JUMPDEST PUSH0 DUP2 CALLDATALOAD SWAP1 POP PUSH2 0x348 DUP2 PUSH2 0x324 JUMP JUMPDEST SWAP3 SWAP2 POP POP JUMP JUMPDEST PUSH0 PUSH1 0x20 DUP3 DUP5 SUB SLT ISZERO PUSH2 0x363 JUMPI PUSH2 0x362 PUSH2 0x313 JUMP JUMPDEST JUMPDEST PUSH0 PUSH2 0x370 DUP5 DUP3 DUP6 ADD PUSH2 0x33A JUMP JUMPDEST SWAP2 POP POP SWAP3 SWAP2 POP POP JUMP JUMPDEST PUSH0 DUP2 MLOAD SWAP1 POP SWAP2 SWAP1 POP JUMP JUMPDEST PUSH0 DUP3 DUP3 MSTORE PUSH1 0x20 DUP3 ADD SWAP1 POP SWAP3 SWAP2 POP POP JUMP JUMPDEST PUSH0 JUMPDEST DUP4 DUP2 LT ISZERO PUSH2 0x3B0 JUMPI DUP1 DUP3 ADD MLOAD DUP2 DUP5 ADD MSTORE PUSH1 0x20 DUP2 ADD SWAP1 POP PUSH2 0x395 JUMP JUMPDEST PUSH0 DUP5 DUP5 ADD MSTORE POP POP POP POP JUMP JUMPDEST PUSH0 PUSH1 0x1F NOT PUSH1 0x1F DUP4 ADD AND SWAP1 POP SWAP2 SWAP1 POP JUMP JUMPDEST PUSH0 PUSH2 0x3D5 DUP3 PUSH2 0x379 JUMP JUMPDEST PUSH2 0x3DF DUP2 DUP6 PUSH2 0x383 JUMP JUMPDEST SWAP4 POP PUSH2 0x3EF DUP2 DUP6 PUSH1 0x20 DUP7 ADD PUSH2 0x393 JUMP JUMPDEST PUSH2 0x3F8 DUP2 PUSH2 0x3BB JUMP JUMPDEST DUP5 ADD SWAP2 POP POP SWAP3 SWAP2 POP POP JUMP JUMPDEST PUSH0 PUSH1 0x20 DUP3 ADD SWAP1 POP DUP2 DUP2 SUB PUSH0 DUP4 ADD MSTORE PUSH2 0x41B DUP2 DUP5 PUSH2 0x3CB JUMP JUMPDEST SWAP1 POP SWAP3 SWAP2 POP POP JUMP JUMPDEST PUSH0 DUP1 REVERT JUMPDEST PUSH0 DUP1 REVERT JUMPDEST PUSH32 0x4E487B7100000000000000000000000000000000000000000000000000000000 PUSH0 MSTORE PUSH1 0x41 PUSH1 0x4 MSTORE PUSH1 0x24 PUSH0 REVERT JUMPDEST PUSH2 0x461 DUP3 PUSH2 0x3BB JUMP JUMPDEST DUP2 ADD DUP2 DUP2 LT PUSH8 0xFFFFFFFFFFFFFFFF DUP3 GT OR ISZERO PUSH2 0x480 JUMPI PUSH2 0x47F PUSH2 0x42B JUMP JUMPDEST JUMPDEST DUP1 PUSH1 0x40 MSTORE POP POP POP JUMP JUMPDEST PUSH0 PUSH2 0x492 PUSH2 0x30A JUMP JUMPDEST SWAP1 POP PUSH2 0x49E DUP3 DUP3 PUSH2 0x458 JUMP JUMPDEST SWAP2 SWAP1 POP JUMP JUMPDEST PUSH0 PUSH8 0xFFFFFFFFFFFFFFFF DUP3 GT ISZERO PUSH2 0x4BD JUMPI PUSH2 0x4BC PUSH2 0x42B JUMP JUMPDEST JUMPDEST PUSH2 0x4C6 DUP3 PUSH2 0x3BB JUMP JUMPDEST SWAP1 POP PUSH1 0x20 DUP2 ADD SWAP1 POP SWAP2 SWAP1 POP JUMP JUMPDEST DUP3 DUP2 DUP4 CALLDATACOPY PUSH0 DUP4 DUP4 ADD MSTORE POP POP POP JUMP JUMPDEST PUSH0 PUSH2 0x4F3 PUSH2 0x4EE DUP5 PUSH2 0x4A3 JUMP JUMPDEST PUSH2 0x489 JUMP JUMPDEST SWAP1 POP DUP3 DUP2 MSTORE PUSH1 0x20 DUP2 ADD DUP5 DUP5 DUP5 ADD GT ISZERO PUSH2 0x50F JUMPI PUSH2 0x50E PUSH2 0x427 JUMP JUMPDEST JUMPDEST PUSH2 0x51A DUP5 DUP3 DUP6 PUSH2 0x4D3 JUMP JUMPDEST POP SWAP4 SWAP3 POP POP POP JUMP JUMPDEST PUSH0 DUP3 PUSH1 0x1F DUP4 ADD SLT PUSH2 0x536 JUMPI PUSH2 0x535 PUSH2 0x423 JUMP JUMPDEST JUMPDEST DUP2 CALLDATALOAD PUSH2 0x546 DUP5 DUP3 PUSH1 0x20 DUP7 ADD PUSH2 0x4E1 JUMP JUMPDEST SWAP2 POP POP SWAP3 SWAP2 POP POP JUMP JUMPDEST PUSH0 DUP1 PUSH1 0x40 DUP4 DUP6 SUB SLT ISZERO PUSH2 0x565 JUMPI PUSH2 0x564 PUSH2 0x313 JUMP JUMPDEST JUMPDEST PUSH0 DUP4 ADD CALLDATALOAD PUSH8 0xFFFFFFFFFFFFFFFF DUP2 GT ISZERO PUSH2 0x582 JUMPI PUSH2 0x581 PUSH2 0x317 JUMP JUMPDEST JUMPDEST PUSH2 0x58E DUP6 DUP3 DUP7 ADD PUSH2 0x522 JUMP JUMPDEST SWAP3 POP POP PUSH1 0x20 PUSH2 0x59F DUP6 DUP3 DUP7 ADD PUSH2 0x33A JUMP JUMPDEST SWAP2 POP POP SWAP3 POP SWAP3 SWAP1 POP JUMP JUMPDEST PUSH32 0x4E487B7100000000000000000000000000000000000000000000000000000000 PUSH0 MSTORE PUSH1 0x22 PUSH1 0x4 MSTORE PUSH1 0x24 PUSH0 REVERT JUMPDEST PUSH0 PUSH1 0x2 DUP3 DIV SWAP1 POP PUSH1 0x1 DUP3 AND DUP1 PUSH2 0x5ED JUMPI PUSH1 0x7F DUP3 AND SWAP2 POP JUMPDEST PUSH1 0x20 DUP3 LT DUP2 SUB PUSH2 0x600 JUMPI PUSH2 0x5FF PUSH2 0x5A9 JUMP JUMPDEST JUMPDEST POP SWAP2 SWAP1 POP JUMP JUMPDEST PUSH0 DUP2 SWAP1 POP DUP2 PUSH0 MSTORE PUSH1 0x20 PUSH0 KECCAK256 SWAP1 POP SWAP2 SWAP1 POP JUMP JUMPDEST PUSH0 PUSH1 0x20 PUSH1 0x1F DUP4 ADD DIV SWAP1 POP SWAP2 SWAP1 POP JUMP JUMPDEST PUSH0 DUP3 DUP3 SHL SWAP1 POP SWAP3 SWAP2 POP POP JUMP JUMPDEST PUSH0 PUSH1 0x8 DUP4 MUL PUSH2 0x662 PUSH32 0xFFFFFFFFFFFFFFFFFFFFFFFFFFFFFFFFFFFFFFFFFFFFFFFFFFFFFFFFFFFFFFFF DUP3 PUSH2 0x627 JUMP JUMPDEST PUSH2 0x66C DUP7 DUP4 PUSH2 0x627 JUMP JUMPDEST SWAP6 POP DUP1 NOT DUP5 AND SWAP4 POP DUP1 DUP7 AND DUP5 OR SWAP3 POP POP POP SWAP4 SWAP3 POP POP POP JUMP JUMPDEST PUSH0 DUP2 SWAP1 POP SWAP2 SWAP1 POP JUMP JUMPDEST PUSH0 PUSH2 0x6A7 PUSH2 0x6A2 PUSH2 0x69D DUP5 PUSH2 0x31B JUMP JUMPDEST PUSH2 0x684 JUMP JUMPDEST PUSH2 0x31B JUMP JUMPDEST SWAP1 POP SWAP2 SWAP1 POP JUMP JUMPDEST PUSH0 DUP2 SWAP1 POP SWAP2 SWAP1 POP JUMP JUMPDEST PUSH2 0x6C0 DUP4 PUSH2 0x68D JUMP JUMPDEST PUSH2 0x6D4 PUSH2 0x6CC DUP3 PUSH2 0x6AE JUMP JUMPDEST DUP5 DUP5 SLOAD PUSH2 0x633 JUMP JUMPDEST DUP3 SSTORE POP POP POP POP JUMP JUMPDEST PUSH0 SWAP1 JUMP JUMPDEST PUSH2 0x6E8 PUSH2 0x6DC JUMP JUMPDEST PUSH2 0x6F3 DUP2 DUP5 DUP5 PUSH2 0x6B7 JUMP JUMPDEST POP POP POP JUMP JUMPDEST JUMPDEST DUP2 DUP2 LT ISZERO PUSH2 0x716 JUMPI PUSH2 0x70B PUSH0 DUP3 PUSH2 0x6E0 JUMP JUMPDEST PUSH1 0x1 DUP2 ADD SWAP1 POP PUSH2 0x6F9 JUMP JUMPDEST POP POP JUMP JUMPDEST PUSH1 0x1F DUP3 GT ISZERO PUSH2 0x75B JUMPI PUSH2 0x72C DUP2 PUSH2 0x606 JUMP JUMPDEST PUSH2 0x735 DUP5 PUSH2 0x618 JUMP JUMPDEST DUP2 ADD PUSH1 0x20 DUP6 LT ISZERO PUSH2 0x744 JUMPI DUP2 SWAP1 POP JUMPDEST PUSH2 0x758 PUSH2 0x750 DUP6 PUSH2 0x618 JUMP JUMPDEST DUP4 ADD DUP3 PUSH2 0x6F8 JUMP JUMPDEST POP POP JUMPDEST POP POP POP JUMP JUMPDEST PUSH0 DUP3 DUP3 SHR SWAP1 POP SWAP3 SWAP2 POP POP JUMP JUMPDEST PUSH0 PUSH2 0x77B PUSH0 NOT DUP5 PUSH1 0x8 MUL PUSH2 0x760 JUMP JUMPDEST NOT DUP1 DUP4 AND SWAP2 POP POP SWAP3 SWAP2 POP POP JUMP JUMPDEST PUSH0 PUSH2 0x793 DUP4 DUP4 PUSH2 0x76C JUMP JUMPDEST SWAP2 POP DUP3 PUSH1 0x2 MUL DUP3 OR SWAP1 POP SWAP3 SWAP2 POP POP JUMP JUMPDEST PUSH2 0x7AC DUP3 PUSH2 0x379 JUMP JUMPDEST PUSH8 0xFFFFFFFFFFFFFFFF DUP2 GT ISZERO PUSH2 0x7C5 JUMPI PUSH2 0x7C4 PUSH2 0x42B JUMP JUMPDEST JUMPDEST PUSH2 0x7CF DUP3 SLOAD PUSH2 0x5D6 JUMP JUMPDEST PUSH2 0x7DA DUP3 DUP3 DUP6 PUSH2 0x71A JUMP JUMPDEST PUSH0 PUSH1 0x20 SWAP1 POP PUSH1 0x1F DUP4 GT PUSH1 0x1 DUP2 EQ PUSH2 0x80B JUMPI PUSH0 DUP5 ISZERO PUSH2 0x7F9 JUMPI DUP3 DUP8 ADD MLOAD SWAP1 POP JUMPDEST PUSH2 0x803 DUP6 DUP3 PUSH2 0x788 JUMP JUMPDEST DUP7 SSTORE POP PUSH2 0x86A JUMP JUMPDEST PUSH1 0x1F NOT DUP5 AND PUSH2 0x819 DUP7 PUSH2 0x606 JUMP JUMPDEST PUSH0 JUMPDEST DUP3 DUP2 LT ISZERO PUSH2 0x840 JUMPI DUP5 DUP10 ADD MLOAD DUP3 SSTORE PUSH1 0x1 DUP3 ADD SWAP2 POP PUSH1 0x20 DUP6 ADD SWAP5 POP PUSH1 0x20 DUP2 ADD SWAP1 POP PUSH2 0x81B JUMP JUMPDEST DUP7 DUP4 LT ISZERO PUSH2 0x85D JUMPI DUP5 DUP10 ADD MLOAD PUSH2 0x859 PUSH1 0x1F DUP10 AND DUP3 PUSH2 0x76C JUMP JUMPDEST DUP4 SSTORE POP JUMPDEST PUSH1 0x1 PUSH1 0x2 DUP9 MUL ADD DUP9 SSTORE POP POP POP JUMPDEST POP POP POP POP POP POP JUMP JUMPDEST PUSH0 DUP2 SWAP1 POP SWAP3 SWAP2 POP POP JUMP JUMPDEST PUSH0 PUSH2 0x886 DUP3 PUSH2 0x379 JUMP JUMPDEST PUSH2 0x890 DUP2 DUP6 PUSH2 0x872 JUMP JUMPDEST SWAP4 POP PUSH2 0x8A0 DUP2 DUP6 PUSH1 0x20 DUP7 ADD PUSH2 0x393 JUMP JUMPDEST DUP1 DUP5 ADD SWAP2 POP POP SWAP3 SWAP2 POP POP JUMP JUMPDEST PUSH32 0x2066726F6D206672616E6B277320636F6E747261637400000000000000000000 DUP2 MSTORE POP JUMP JUMPDEST PUSH0 PUSH2 0x8DD DUP3 DUP5 PUSH2 0x87C JUMP JUMPDEST SWAP2 POP PUSH2 0x8E8 DUP3 PUSH2 0x8AC JUMP JUMPDEST PUSH1 0x16 DUP3 ADD SWAP2 POP DUP2 SWAP1 POP SWAP3 SWAP2 POP POP JUMP INVALID LOG2 PUSH5 0x6970667358 0x22 SLT KECCAK256 DIV SWAP10 0x1F JUMPDEST CODESIZE 0xEB ADDRESS DUP8 0xBD CALLVALUE BLOBHASH 0xA9 STATICCALL SELFDESTRUCT 0xC 0x2F PUSH19 0x3C69C662BCA44AF1D4A784CBC3D2B264736F6C PUSH4 0x43000818 STOP CALLER "
		},
		"gasEstimates": {
			"creation": {
				"codeDepositCost": "469800",
				"executionCost": "infinite",
				"totalCost": "infinite"
			},
			"external": {
				"sayHello(uint256)": "infinite",
				"setHelloWorld(string,uint256)": "infinite"
			},
			"internal": {
				"additon(string memory)": "infinite"
			}
		},
		"methodIdentifiers": {
			"sayHello(uint256)": "42257b31",
			"setHelloWorld(string,uint256)": "5d641b89"
		}
	},
	"abi": [
		{
			"inputs": [
				{
					"internalType": "uint256",
					"name": "_id",
					"type": "uint256"
				}
			],
			"name": "sayHello",
			"outputs": [
				{
					"internalType": "string",
					"name": "",
					"type": "string"
				}
			],
			"stateMutability": "view",
			"type": "function"
		},
		{
			"inputs": [
				{
					"internalType": "string",
					"name": "newString",
					"type": "string"
				},
				{
					"internalType": "uint256",
					"name": "_id",
					"type": "uint256"
				}
			],
			"name": "setHelloWorld",
			"outputs": [],
			"stateMutability": "nonpayable",
			"type": "function"
		}
	]
}